:100000000C948C020C94B4020C94B4020C94B402C0
:100010000C94B4020C94B4020C94B4020C94B40288
:100020000C94B4020C94B4020C94CA1E0C94391FA4
:100030000C9417220C94B4020C94B4020C94B402E5
:100040000C94B4020C94ED210C94B4020C94B40200
:100050000C94B4020C94B4020C94B4020C94801E60
:100060000C94B4020C9491210C946B210C94B40266
:100070000C94B4020C94B4020C94B4020C94B40228
:100080000C94C3210C94B4020C94B4020C94B402EA
:100090000C94B4020C94B4020C94B4020C94B40208
:1000A0000C94B4020C94B4020C94B402080B000239
:1000B0000202000009040000010202000005240001
:1000C0001001052401010104240206052406000193
:1000D0000705810310004009040100020A00000026
:1000E00007050202400000070583024000000403E8
:1000F000090412010002EF0201404F1B03920001AC
:1001000001020301537061726B46756E005370619A
:10011000726B46756E2050726F204D6963726F006E
:1001200073797320676574206877657569000706C1
:1001300005040100080A0B0C0D0900000000240052
:1001400027002A002D0030000000000025002800B4
:100150002B002E00310004040404040304050202F1
:100160000202040302020202060606060606040450
:1001700002020204040408020110408040102040E2
:10018000804080080204018040201002011080108D
:10019000204040200000000200090F00000304017D
:1001A000000C000000000000000000000000000043
:1001B00000006D616320736574206368207374614F
:1001C0007475732037206F6E006D616320736574E2
:1001D00020636820646379636C6520372037393980
:1001E000006D6163207365742063682064727261BE
:1001F0006E6765203720302035006D6163207365A0
:10020000742063682066726571203720383637396C
:100210003030303030006D61632073657420636866
:10022000207374617475732036206F6E006D616386
:100230002073657420636820646379636C6520367D
:1002400020373939006D616320736574206368203D
:10025000647272616E6765203620302035006D61F2
:100260006320736574206368206672657120362090
:10027000383637373030303030006D616320736589
:1002800074206368207374617475732035206F6EF9
:10029000006D616320736574206368206463796313
:1002A0006C65203520373939006D616320736574C2
:1002B00020636820647272616E676520352030208B
:1002C00035006D6163207365742063682066726514
:1002D00071203520383637353030303030006D61A0
:1002E0006320736574206368207374617475732070
:1002F00034206F6E006D6163207365742063682025
:10030000646379636C65203420373939006D61632B
:100310002073657420636820647272616E67652063
:100320003420302035006D6163207365742063686C
:1003300020667265712034203836373330303030E3
:1003400030006D616320736574206368207374618D
:100350007475732033206F6E006D61632073657454
:1003600020636820646379636C65203320373939F2
:10037000006D61632073657420636820647272612C
:100380006E6765203320302035006D616320736512
:1003900074206368206672657120332038363731E7
:1003A0003030303030006D616320736574206368D5
:1003B00020646379636C65203220373939006D61C0
:1003C000632073657420636820646379636C6520BF
:1003D0003120373939006D6163207365742063689B
:1003E00020647272616E6765203120302036006DA6
:1003F00061632073657420636820646379636C654E
:10040000203020373939006D6163207365742072A4
:100410007832203320383639353235303030006D7F
:100420006163206A6F696E20616270006D61632094
:1004300073617665006D616320736574206472205A
:1004400035006D616320736574207077726964781C
:100450002031006D616320736574206172206F66C6
:1004600066006D61632073657420616472206F663D
:1004700066006D61632072657365742038363800DC
:100480006D6163207265736574006D6163206A6FCE
:10049000696E206F746161006D61632073617665C0
:1004A000006D616320736574206172206F66660061
:1004B0006D61632073657420616472206F666600ED
:1004C0006D61632073657420707772696478203180
:1004D000006D6163207365742070777269647820A1
:1004E00035007379732067657420687765756900D6
:1004F0006D616320726573657420383638006D61F4
:100500006320726573657400737973206765742066
:10051000766572006122A72911241FBECFEFDAE0B1
:10052000DEBFCDBF12E0A0E0B1E0ECE4F4E602C033
:1005300005900D92A43EB107D9F725E0A4EEB2E0F4
:1005400001C01D92AE3BB207E1F712E0CBE8D2E06A
:1005500004C02197FE010E94732CCA38D107C9F745
:100560000E947D230C9419320C940000FC018091B0
:100570009603882311F13FB7F89482E08093E90055
:100580002091F200822F90E01816190614F481E0F1
:1005900090E0882339F0289844E6409395034091F1
:1005A000F1004083222339F02091F200211103C091
:1005B0002BE62093E8003FBF08958FEF9FEF08954B
:1005C0002FB7F89483E08093E9009091E800892F99
:1005D000807295FF04C09091F20080E4891B2FBFC8
:1005E000089580918D0381110DC082E0809389036D
:1005F00084E080938A0310928C0310928B0381E035
:1006000080938D0389E893E00895282F30E0F90165
:10061000EC56FE4F9491F901EB58FE4F84912A5A03
:100620003E4FF9012491222309F430C09923E9F0C7
:1006300091509F30D0F4E92FF0E0EF5DFC4F0C9427
:10064000732C4F035303300347034B033503350328
:10065000350356035C03600364036A0335036E03CA
:10066000909180009F7790938000E22FF0E0EE0F52
:10067000FF1FE85BFE4FA591B4919FB7F894EC91F2
:10068000611132C080958E238C939FBF0895909105
:1006900080009F7DE8CF90918000977FE4CF94B554
:1006A0009F7794BDE2CF94B59F7DFBCF9091900052
:1006B0009F7790939000D9CF909190009F7DF9CF34
:1006C00090919000977FF5CF9091C0009F77909385
:1006D000C000CBCF9091C0009F7DF9CF9091C20018
:1006E000977F9093C200C1CF8E2BCECFCF93DF9355
:1006F00090E0FC01EB58FE4F24918A5A9E4FFC017A
:1007000084918823D1F090E0880F991FFC01E65C6A
:10071000FE4FA591B491FC01E85BFE4FC591D491C9
:1007200061110EC09FB7F8948C91E22FE0958E2353
:100730008C932881E223E8839FBFDF91CF910895B6
:100740008FB7F894EC91E22BEC938FBFF6CF8091AA
:10075000A105883108F04BC061E08AE00E94760371
:100760008091A10598E0899FF0011124EB5FFB4F78
:100770009081907C9A6090831092A2051092A305BC
:100780002CE0622F0E94532C829FB001112430E094
:1007900020E0FB01E20FF31F93E0EE0FFF1F9A959D
:1007A000E1F7EB5FFB4F908196FD16C02F5F3F4F47
:1007B0002C30310571F78130E9F41092800082E02D
:1007C000809381001092850010928400B19A8091EC
:1007D0006F00826080936F00E091A10588E0E89F40
:1007E000F0011124EB5FFB4F808180648083809156
:1007F000A10508958111F0CF1092900082E08093BE
:100800009100109295001092940088BB8093710023
:10081000E3CF8251E82FF0E0E25DFE4FE49190914A
:100820007B008E2F880F880F80729F7D892B80938D
:100830007B00E770E064E0937C0080917A00806444
:1008400080937A0080917A0086FDFCCF80917800B9
:100850009091790008953FB7F89480918503909125
:100860008603A0918703B091880326B5A89B05C095
:100870002F3F19F00196A11DB11D3FBFBA2FA92F1F
:10088000982F8827BC01CD01620F711D811D911D1C
:1008900043E0660F771F881F991F4A95D1F7089587
:1008A0008F929F92AF92BF92CF92DF92EF92FF9280
:1008B0004B015C010E942B046B017C010E942B0404
:1008C0006C197D098E099F09683E73408105910569
:1008D000A8F321E0821A9108A108B10888EEC80E99
:1008E00083E0D81EE11CF11C81149104A104B10421
:1008F00029F7FF90EF90DF90CF90BF90AF909F903F
:100900008F9008954F925F926F927F92AF92BF92B5
:10091000CF92DF92EF92FF920F931F93CF93DF93CB
:10092000EC0108E512E068E8A62EB12C8091A30541
:100930006801C81AD10887FDD394CC0CDD1CCC0CFF
:10094000DD1C0D2C000CEE08FF088091A20525018E
:10095000481A510887FD5394440C551C440C551CEF
:10096000052C000C66087708E091A10590E080E076
:10097000EF3FB9F088E0E89FF0011124EB5FFB4FF7
:100980008181928123E0880F991F2A95E1F7B0E0D9
:10099000A0E033E0B595A795979587953A95D1F75F
:1009A00002969C012F5F3F4F032E000C440B550B0A
:1009B0002419350946095709A4EBB0E00E94FA2B27
:1009C000A701960124193509460957090E94DB2B16
:1009D000C217D30739F065E070E080E090E00E9434
:1009E0005004A4CFDF91CF911F910F91FF90EF9012
:1009F000DF90CF90BF90AF907F906F905F904F90BF
:100A000008952FB7F89460918103709182038091CB
:100A10008303909184032FBF08954F925F926F924A
:100A20007F929F92AF92BF92CF92DF92EF92FF920E
:100A30000F931F93CF93DF9300D01F92CDB7DEB7F4
:100A4000D090AD058091B0059091B105A091B2050F
:100A5000B091B305892B8A2B8B2BD9F00E942B04E4
:100A60000091B1031091B2032091B3033091B4030C
:100A7000601B710B820B930B0091B0051091B105B7
:100A80002091B2053091B305601771078207930773
:100A9000C8F20E942B046093B1037093B203809359
:100AA000B3039093B403E091B805F091B905309782
:100AB00059F04091B4055091B5056091B60570911B
:100AC000B7058D2D0995D82EE090AF03F090B003B7
:100AD0004D2C512C712C612CE114F10409F459C0F6
:100AE000D7011C96CC901C978091AE059091AF05D4
:100AF0008436910510F41C961C92D701ED91FC915F
:100B0000A280B38019821A821B82DD2079F1F7015D
:100B1000369610E000E02191222319F1928099206D
:100B200001F130E050E040E02F5F3F4F4F4F5F4F0B
:100B3000C301B2010E94A92B9B01AC01892D90E059
:100B4000B0E0A0E0BC01CD016F5F7F4F8F4F9F4FA2
:100B50000E94A92BA1E0B0E0AC0FBD1FA00FB11FF8
:100B60008C930F5F1F4F03301105A9F609811A817D
:100B70002B81F7014585568562817381C701F50197
:100B80000995D7011C96CC921C971496ED90FC9079
:100B9000A3CF8091AD039091AE038C010F5F1F4FE7
:100BA0001093AE030093AD034997B4F10E94010581
:100BB000C090A903D090AA03E090AB03F090AC03DF
:100BC0009B01AC012C193D094E095F0921F421E07C
:100BD00030E040E050E088EE93E0089FB001099FCC
:100BE000700D189F700D1124072E000C880B990BA7
:100BF0000E94B92B3093AF052093AE051092AE033F
:100C00001092AD030E9401056093A9037093AA039B
:100C10008093AB039093AC030F900F900F90DF91F4
:100C2000CF911F910F91FF90EF90DF90CF90BF90E9
:100C3000AF909F907F906F905F904F90089580E964
:100C400091E0089508954091EA025091EB022091BD
:100C5000E8023091E90242175307B4F49091E8009A
:100C60009570E1F39091E80092FD19C08093F10036
:100C70008091EA029091EB0201968F739927892B5C
:100C800019F48EEF8093E8008091EA029091EB02D4
:100C900001969093EB028093EA0281E0089580E050
:100CA0000895DF92EF92FF920F931F93CF93DF93FC
:100CB000D82E8A01EB017B01E40EF51ECE15DF056F
:100CC00059F0D7FE12C0FE0184910E94230621969E
:100CD0008111F4CF0FEF1FEFC801DF91CF911F916A
:100CE0000F91FF90EF90DF9008958881EECF0F93E2
:100CF0001F93CF93DF931F92CDB7DEB782E0898336
:100D000042E450E06CEA70E080E80E9451060E94E4
:100D1000F102DC0112960D911C910115110589F06B
:100D2000D801ED91FC910280F381E02DBE016F5F4F
:100D30007F4FC801099597FD04C0F8010085118512
:100D4000ECCF89810F90DF91CF911F910F91089582
:100D5000615030F02091F100FC0120830196F8CF22
:100D6000289884E68093950308950F931F93CF935B
:100D7000DF93EC010E940105688779878A879B874A
:100D8000E881F9810284F385E02DCE01099597FF72
:100D900015C00E940105088519852A853B85601BC1
:100DA000710B820B930B0C811D812E813F8160178B
:100DB00071078207930720F38FEF9FEFDF91CF91A9
:100DC0001F910F910895DB0114964D915C91159739
:100DD0006D917C91DC01ED91FC910280F381E02D1D
:100DE0000994AF92BF92CF92DF92EF92FF920F934E
:100DF0001F93CF93DF936C017B018B01040F151FB1
:100E0000EB015E01AE18BF08C017D10759F0699118
:100E1000D601ED91FC910190F081E02DC60109957C
:100E2000892B79F7C501DF91CF911F910F91FF9029
:100E3000EF90DF90CF90BF90AF900895FC01538D5D
:100E4000448D252F30E0842F90E0821B930B5417A4
:100E500010F0CF96089501970895FC01918D828D31
:100E6000981761F0A28DAE0FBF2FB11D5D968C91CA
:100E7000928D9F5F9F73928F90E008958FEF9FEF09
:100E80000895FC01918D828D981731F0828DE80FC5
:100E9000F11D858D90E008958FEF9FEF0895FC017F
:100EA000918D228D892F90E0805C9F4F821B91094C
:100EB0008F73992708958BED94E00E944F0721E0EE
:100EC000892B09F420E0822F089580E090E0892B9F
:100ED00029F00E945B0781110C9400000895FC0129
:100EE000A48DA80FB92FB11DA35ABF4F2C91848D8B
:100EF00090E001968F739927848FA689B7892C93E8
:100F0000A089B1898C9182748C93938D848D981370
:100F100006C00288F389E02D80818F7D808308954B
:100F2000EF92FF920F931F93CF93DF93EC0181E039
:100F3000888F9B8D8C8D981319C0E889F9898081E1
:100F400085FF14C09FB7F894EE89FF896083E88914
:100F5000F9898081827480839FBF81E090E0DF9176
:100F6000CF911F910F91FF90EF900895F62E0B8D6A
:100F700010E00F5F1F4F0F731127E02E8C8D8E1125
:100F80000CC00FB607FCFACFE889F989808185FF8C
:100F9000F5CFCE010E946F07F1CFEB8DEC0FFD2F47
:100FA000F11DE35AFF4FF0829FB7F8940B8FEA8947
:100FB000FB8980818062CFCFCF93DF93EC01888D56
:100FC0008823B9F0AA89BB89E889F9898C9185FDC4
:100FD00003C0808186FD0DC00FB607FCF7CF8C9152
:100FE00085FFF2CF808185FFEDCFCE010E946F0794
:100FF000E9CFDF91CF9108958F929F92AF92BF92E8
:10100000CF92DF92EF92FF920F931F93CF93DF93D4
:101010006C017B018A0180910B01882309F45CC07B
:1010200080919603882309F457C08091EE0280FFD7
:1010300005C08091E00082608093E000E801B12C5F
:101040008AEFA82E93E0892E2AE3922E209711F49E
:10105000BB20D9F10E94E00281110AC0AA94AA2003
:10106000D9F161E070E080E090E00E945004EECFA2
:101070008C171D0611F00CF08C2F9FB7F8948092FE
:10108000E9002091E80025FD02C09FBFDFCF282F97
:1010900030E0C21BD30BF701815020F04191409307
:1010A000F100FACFE20EF31EBB2021F09092E8008F
:1010B000B12CEBCF8091E80085FDE7CF9092E8005E
:1010C000BB24B394209709F3F3CF5D9884E6809313
:1010D000ED02101611063CF081E090E0F6019383DA
:1010E000828310E000E0C801DF91CF911F910F9142
:1010F000FF90EF90DF90CF90BF90AF909F908F9038
:101100000895CF93DF931F92CDB7DEB76983DC01DB
:10111000ED91FC910280F381E02D41E050E0BE01B1
:101120006F5F7F4F09950F90DF91CF91089583E016
:101130008093E9008091F200882319F08AE380937C
:10114000E80008950E94E00290E00895CF93DF93B5
:101150001F92CDB7DEB7FC018485958597FD08C049
:101160002FEF3FEF358724870F90DF91CF910895C0
:10117000CE0101960E94B602019719F4898190E090
:10118000F3CF8FEF9FEFF0CF0F931F93CF93DF93AA
:101190001F92CDB7DEB78C01FC018485958597FF42
:1011A0000BC0CE0101960E94B602019771F48981AD
:1011B00090E0F80195878487F801848595850F90E4
:1011C000DF91CF911F910F9108958FEF9FEFF1CF96
:1011D000FC018485958597FD0BC09FB7F89482E04C
:1011E0008093E9008091F2009FBF90E001960895FE
:1011F0009FB7F89482E08093E9008091F2009FBF4E
:1012000090E00895AF92BF92CF92DF92EF92FF925B
:101210000F931F93CF93DF936B017A018C010A51D7
:101220001D4FF80120813CE0389FE001399FD00D2F
:101230001124A090C504B12C27FF1FC0FB0111820F
:101240001082F80180818F5F808380819E01280F4A
:10125000311D87FD3A952A153B051CF480818C30A1
:10126000CCF1F6018081918184329E4408F46AC1F8
:10127000F60180819181049667C180819E01280FCB
:10128000311D87FD3A952A153B05DCF68081FE016C
:10129000E80FF11D87FDFA9533E0EE0FFF1F3A9539
:1012A000E1F7EB5FFB4F808186FFCBCFF8018081B8
:1012B000FE01E80FF11D87FDFA9523E0EE0FFF1FF9
:1012C0002A95E1F7EB5FFB4F808160E08F730E940E
:1012D0000503B7CF8081FE01E80FF11D87FDFA9568
:1012E00093E0EE0FFF1F9A95E1F7EB5FFB4F8781CD
:1012F000882309F4E2C0F80190818081DE01A90F02
:10130000B11D97FDBA9573E0AA0FBB1F7A95E1F75F
:10131000AB5FBB4FFE01E80FF11D87FDFA9583E03F
:10132000EE0FFF1F8A95E1F7EB5FFB4F15962D91AE
:101330003C9181819281F8018217930708F077C070
:1013400080819081FE01E90FF11D97FDFA9533E050
:10135000EE0FFF1F3A95E1F7EB5FFB4FDE01A80FA1
:10136000B11D87FDBA9543E0AA0FBB1F4A95E1F76F
:10137000AB5FBB4F17968C9121813281820F932FE7
:10138000911D92838183F80190818081DE01A90FF4
:10139000B11D97FDBA9553E0AA0FBB1F5A95E1F70F
:1013A000AB5FBB4FFE01E80FF11D87FDFA9563E0CF
:1013B000EE0FFF1F6A95E1F7EB5FFB4F15962D913E
:1013C0003C91818192818217930708F476C0F801DD
:1013D00080819081FE01E90FF11D97FDFA9543E0B0
:1013E000EE0FFF1F4A95E1F7EB5FFB4FDE01A80F01
:1013F000B11D87FDBA9553E0AA0FBB1F5A95E1F7BF
:10140000AB5FBB4F15968D919C9192838183F801C0
:101410008081FE01E80FF11D87FDFA9563E0EE0F74
:10142000FF1F6A95E1F7EB5FFB4F178246C0808193
:101430009081FE01E90FF11D97FDFA9573E0EE0F23
:10144000FF1F7A95E1F7EB5FFB4FDE01A80FB11D9F
:1014500087FDBA9583E0AA0FBB1F8A95E1F7AB5FC2
:10146000BB4F17962C9181819281821B91099283A7
:101470008183F80190818081DE01A90FB11D97FD64
:10148000BA9593E0AA0FBB1F9A95E1F7AB5FBB4FEC
:10149000FE01E80FF11D87FDFA9523E0EE0FFF1F17
:1014A0002A95E1F7EB5FFB4F15962D913C918181D9
:1014B00092812817390708F08ACFF601808191813F
:1014C000F8012081FE01E20FF11D27FDFA9523E0CE
:1014D000EE0FFF1F2A95E1F7EB5FFB4F2181328171
:1014E000820F931FF70191838083F8018081FE01B1
:1014F000E80FF11D87FDFA9533E0EE0FFF1F3A95D7
:10150000E1F7EB5FFB4F808186FF24C0F80180810B
:10151000C80FD11D87FDDA9583E0CC0FDD1F8A95BA
:10152000E1F7CB5FDB4F888161E08F73DF91CF9173
:101530001F910F91FF90EF90DF90CF90BF90AF90F1
:101540000C94050380E29EE4F701918380838FEF82
:10155000F8018083DF91CF911F910F91FF90EF9061
:10156000DF90CF90BF90AF9008954115510529F4B9
:10157000EAE7F0E080818F7780836A307105B9F007
:10158000CB01880F991F880F991F80726770686060
:10159000682B88E10FB6F894A895809360000FBE81
:1015A00060936000E0E6F0E0808180648083232B1C
:1015B000B1F483B7817F846083BFF89483B781607F
:1015C00083BF7894889583B78E7F83BF7894452BAB
:1015D00029F4EAE7F0E0808180688083089583B78A
:1015E000817F846083BFF89483B7816083BF7894E0
:1015F000889583B78E7F83BF7894E9CF0F931F932D
:10160000CF93DF932091E5022F5F322F3770309315
:10161000E50220FF2BC020E831FD2064347009F082
:101620002062205FFC01EC01239600E011E064855C
:10163000662329F070E0C8010E945F2C6F5F61870C
:10164000322F369F030E30E0311D1124311110C0AE
:101650001682662311F0615061873196EC17FD0701
:1016600031F7DF91CF911F910F91089520E0D4CFF2
:1016700031503683EECF4F925F926F927F928F926E
:101680009F92AF92CF92DF92EF92FF920F931F93B0
:10169000CF93DF933C01EB010E942B04F3012785DC
:1016A0003089621B730B6A307105B0F3F894E881DE
:1016B000F98108B1006418B11F7B18B9C9848E8103
:1016C0004C2D481B842F4E839F844A805B80FC8472
:1016D000ED84DE84F394E394D3949F8138858A84E7
:1016E000AB844081D20120E0622F722F70814427A9
:1016F00088947111780F08F47FEF81958894F0FC3D
:10170000470F47958894F1FC470F47958894F2FC62
:10171000470F47958894F3FC470F47958894F4FC4E
:10172000470F47958894F5FC470F47958894F6FC3A
:10173000470F47958894F7FC470F47958894272FC4
:10174000F110242F8C0D422F002C08B947FF18B937
:1017500071812227889418B97111790F08B946FF51
:1017600018B908F47FEF9195889418B9E0FC270F19
:1017700008B945FF18B927958894E1FC270F18B9D7
:101780002795889408B944FF18B9E2FC270F2795DC
:10179000889418B9E3FC270F08B943FF18B92795B7
:1017A0008894E4FC270F18B92795889408B942FF5C
:1017B00018B9E5FC270F2795889418B9E6FC270F80
:1017C00008B941FF18B927958894E7FC270F18B985
:1017D0002795889408B940FF18B9472FE110422F88
:1017E000980D18B900C008B947FF18B972812227AF
:1017F000889418B97111730F08B946FF18B908F425
:101800007FEFE90DF11D18B9D0FC270F08B945FF8E
:1018100018B927958894D1FC270F18B92795889473
:1018200008B944FF18B9D2FC270F2795889418B936
:10183000D3FC270F08B943FF18B927958894D4FC27
:10184000270F18B92795889408B942FF18B9D5FC15
:10185000270F2795889418B9D6FC270F08B941FFA0
:1018600018B927958894D7FC270F18B9279588941D
:1018700008B940FF18B9472FD110422F319518B938
:101880003A0D002C08B947FF18B9708122278894B7
:1018900018B97111780F08B946FF18B908F47FEF2D
:1018A0008195889418B9F0FC270F08B945FF18B93D
:1018B00027958894F1FC270F18B92795889408B9C3
:1018C00044FF18B9F2FC270F2795889418B9F3FC48
:1018D000270F08B943FF18B927958894F4FC270F00
:1018E00018B92795889408B942FF18B9F5FC270F55
:1018F0002795889418B9F6FC270F08B941FF18B945
:1019000027958894F7FC270F18B92795889408B96C
:1019100040FF18B9472FF110422F8C0D18B91197BD
:1019200009F013CF20EF30E0D2010E94792C6B0137
:101930007C01F3E0F694E794D794C794FA95D1F735
:1019400030E020E0F9018AE9489E040CE11D589E30
:10195000E00DF11D1124E50DF11DCF01B0E0A0E077
:10196000880F991FAA1FBB1F8C0D9D1DAE1DBF1D8B
:10197000893EE3E09E07A105B10508F434C0885E06
:101980009340A109B10942E0B695A795979587952F
:101990004A95D1F747E0849F080E211D949F200DA2
:1019A000311D1124290F311D6091E40270E0860F72
:1019B000971F820F931F4091810350918203609182
:1019C000830370918403292F3327420F531F611D16
:1019D000711D40938103509382036093830370933E
:1019E00084038093E40278940E942B04F301708BAB
:1019F0006787DF91CF911F910F91FF90EF90DF905C
:101A0000CF90AF909F908F907F906F905F904F900E
:101A100008953E9A0895EF92FF920F931F93CF93EC
:101A2000DF93CDB7DEB762970FB6F894DEBF0FBE77
:101A3000CDBF7C01DC011C968C917A8369835C8329
:101A40004B835E834D830D871E872F87813001F581
:101A5000CE0101960E94FE0A83E0888B1A8A198AB9
:101A6000D701ED91FC910484F585E02DBE016F5FF7
:101A70007F4FC701099562960FB6F894DEBF0FBE7F
:101A8000CDBFDF91CF911F910F91FF90EF900895FF
:101A90001C861B861A86198618861F82DDCFEF9258
:101AA000FF920F931F93CF93DF93CDB7DEB762976B
:101AB0000FB6F894DEBF0FBECDBF7C01DC011C96D3
:101AC0008C917A8369835C834B835E834D830D871E
:101AD0001E872F878130F9F4CE0101960E94FE0AFD
:101AE000188A1A8A198AD701ED91FC910484F58528
:101AF000E02DBE016F5F7F4FC701099562960FB65B
:101B0000F894DEBF0FBECDBFDF91CF911F910F9133
:101B1000FF90EF9008951C861B861A8619861886FA
:101B20001F82DECFCF92DF92EF92FF9283E10E947D
:101B30000904880F991FBC01990F880B990B0E940B
:101B4000642A2EEA37E441E55BE30E94C32A25EFCD
:101B50003DEB40E85FE30E94C32A6B017C01C09229
:101B6000A503D092A603E092A703F092A8032DEC60
:101B70003CEC4CE450E40E94372D87FF10929F0309
:101B80002DEC3CEC4CE450E4C701B6010E945D2A08
:101B900087FF03C081E080939F03FF90EF90DF9069
:101BA000CF9008950F931F93CF93DF9300D01F9290
:101BB000CDB7DEB7AB0119821A821B82DC01ED9131
:101BC000FC910190F081E02D00E010E020E0BE01EA
:101BD0006F5F7F4F09950F900F900F90DF91CF911E
:101BE0001F910F910895FC0185859685089590E0D9
:101BF00080E008958F929F92AF92BF92EF92FF92F2
:101C00000F931F93CF93DF932091A10538E0239F7B
:101C100070011124F701EB5FFB4F9483838328311C
:101C200008F046C02091A30508E512E0021B110947
:101C300027FD1395000F111F000F111F2091A20502
:101C4000C8E8D0E0C21BD10927FDD395CC0FDD1F1A
:101C5000CC0FDD1F4E010D2E000CAA08BB08980109
:101C6000012E000C440B550B281939094A095B0950
:101C7000DC010E94052C24EB30E040E050E00E94A3
:101C8000DB2B820E931EA41EB51E8C169D062CF017
:101C9000E801801691060CF4E4018FB7F894F7017F
:101CA000EB5FFB4F2297D683C5839AE097838FBF64
:101CB000DF91CF911F910F91FF90EF90BF90AF9068
:101CC0009F908F9008950E94A70360E087E00E9494
:101CD00005038AE590E00E94FA0D8AE590E00E94F3
:101CE000820468EE73E080E090E00E94500490E08F
:101CF00080E00E94FA0D90E080E00E94820461E0A2
:101D000087E00E940503E091A10588E0E89FF001CB
:101D10001124EB5FFB4F80818F7B808310926A03DD
:101D2000109269030E940105609365037093660336
:101D300080936703909368030895FB01019000204E
:101D4000E9F73197AF01461B570BDC01ED91FC9190
:101D50000280F381E02D09948F929F92AF92BF92FF
:101D6000CF92DF92EF92FF920F931F93CF93DF9367
:101D7000CDB7DEB7A1970FB6F894DEBF0FBECDBFCB
:101D800063E671E080917805909179050E949D0E3F
:101D9000E0907805F090790519A28E010F5D1F4F34
:101DA00020E03EE243E952E08AE0882E912CA12C0B
:101DB000B12C6E0189E1C80ED11CCA01B901A5017F
:101DC00094010E94B92B605DF80162938F01EC15BC
:101DD000FD0599F7BF01C7010E949D0E6EE671E0F7
:101DE000C7010E949D0EA1960FB6F894DEBF0FBEEC
:101DF000CDBFDF91CF911F910F91FF90EF90DF90BA
:101E0000CF90BF90AF909F908F900895CF93DF9326
:101E100000D000D01F92CDB7DEB74423B9F069835C
:101E20007A838B839C834D838091C804811121C068
:101E30002091D7043091D8048091C9049091CA04AC
:101E400028173907B1F481E08093A103109272033F
:101E500010927303109274030E940D0561E087E0F5
:101E60000F900F900F900F900F90DF91CF910C94E7
:101E700005034091CB045091CC042091D3043091C0
:101E8000D404429FC001439F900D529F900D112496
:101E90002091D1043091D204BE016F5F7F4F820F39
:101EA000931F0E94372F4091C9045091CA0480911A
:101EB000D3049091D4049A012150310982179307D9
:101EC000A0F401969093D4048093D3048091D70416
:101ED0009091D8044817590769F001969093D80457
:101EE0008093D7041092A103B1CF1092D404109222
:101EF000D304ECCF8091C8048823A1F38091C60459
:101F00009091C704892B71F78091D5049091D604E4
:101F10008217930730F401969093D6048093D504EA
:101F2000E1CF1092D6041092D504DCCFEF92FF924D
:101F30000F931F93CF937C0180E4F70111928A9550
:101F4000E9F7C0E085EB93E00E94E808181619064F
:101F5000F4F485EB93E00E94A6088C01682F85EBD2
:101F600093E00E9481080A30110561F30D301105DC
:101F700041F48C2F90E0CF911F910F91FF90EF9043
:101F80000895F701EC0FF11D0083CF5FDBCF61E017
:101F900070E080E090E00E945004CF3398F2E9CFE7
:101FA0000E941E2FAF92BF92CF92DF92EF92FF92CC
:101FB0000F931F93CF93DF93DC01CD90DC901197AB
:101FC000C114D10439F01496CD91DC918C017601C5
:101FD000209761F4DF91CF911F910F91FF90EF90C7
:101FE000DF90CF90BF90AF90089575015701BFEF7C
:101FF000AB1ABB0AF7018081082E000C990B0E94D6
:10200000F729892B91F72197CC0DDD1D8881082EAA
:10201000000C990B0E94F729892B29F0CE15DF05BA
:1020200010F02197F3CFAE014F5F5F4F4E195F095C
:10203000D80115965C934E931497CE14DF0420F4C8
:10204000B701C6010E94372FD801ED91FC9111977D
:1020500014968D919C91E80FF91F1082BBCFFB0164
:1020600044815581FC01248135812417350778F09E
:1020700080819181009759F0FB0160817181611528
:10208000710529F00E945B2F21E0892B09F020E0E7
:10209000822F08950F931F93CF93DF938C01EB0151
:1020A000FC01808191810097E1F06881798161155F
:1020B0007105A9F0428153812C813D81421753075C
:1020C00070F00E94542F8C819D81F8019583848348
:1020D0001D821C82DF91CF911F910F9108950E9464
:1020E000D82D88819981F801918380838A819B8191
:1020F000938382838C819D81958384831982188246
:102100001B821A82E5CFCF93DF93EC0188819981FE
:10211000009711F00E94D82D198218821D821C820E
:102120001B821A82DF91CF910895FC0180819181F9
:10213000009711F00C94D82D08950F931F93CF930F
:10214000DF93EC0188819981009759F02A813B81C6
:102150002617370730F081E0DF91CF911F910F9163
:1021600008958B016F5F7F4F0E94612E009759F099
:10217000998388831B830A832C813D81232B59F704
:10218000FC011082E8CF80E0E7CFEF92FF920F933F
:102190001F93CF93DF936115710541F480E0DF91C8
:1021A000CF911F910F91FF90EF9008954115510528
:1021B000B1F07B01EC010C811D81040F151FB801EA
:1021C0000E949D10882351F3288139818C819D8143
:1021D000B701820F931F0E94542F1D830C8381E04F
:1021E000DECFCF93DF93EC01FB0144815581608109
:1021F00071810E94C510811103C0CE010E9483101D
:10220000CE01DF91CF910895EF92FF920F931F932C
:10221000CF93DF93EC017B018A01BA010E949D10EC
:1022200081110BC0CE010E948310CE01DF91CF91AE
:102230001F910F91FF90EF9008951D830C83B701BC
:10224000888199810E94542FF0CFCF93DF93EC01C6
:102250006115710571F0FB0101900020E9F73197DC
:10226000AF01461B570B0E940411CE01DF91CF91A5
:1022700008950E948310F9CFCF93DF93EC01FB0107
:102280008617970749F0608171816115710541F0EA
:10229000448155810E940411CE01DF91CF910895B0
:1022A0000E948310F9CFFC011182108213821282E6
:1022B000158214820C943C11FC011182108213824D
:1022C000128215821482FB0101900020E9F73197F8
:1022D000AF01461B570B0C940411EF92FF920F9322
:1022E0001F93CF93DF9300D0CDB7DEB78C017B0176
:1022F00060E771E00E945C11C7010E94B50697FD7E
:102300000EC08A30910559F089831A8241E050E06D
:10231000BE016F5F7F4FC8010E94C510EDCFC8019D
:102320000F900F90DF91CF911F910F91FF90EF9041
:102330000895EF92FF920F931F93CF93DF938C0139
:102340007B0164E670E080E090E00E9450048091A0
:10235000780590917905DC01ED91FC910084F1857F
:10236000E02D0995C0917805D0917905892B41F030
:10237000E881F9810284F385E02DCE010995E7CF4C
:10238000B701CE010E94E3066EE671E0CE010E9425
:102390009D0E6091780570917905C8010E946D11BC
:1023A000C8010E94D20FC801DF91CF911F910F91F8
:1023B000FF90EF900895EF92FF921F93CF93DF93DA
:1023C000CDB7DEB72C970FB6F894DEBF0FBECDBFEA
:1023D00060E771E0CE0107960E945C111AE08B85E0
:1023E0009C85892B29F0EF81F885808181114AC075
:1023F00068EE73E080E090E00E94500480917805E0
:1024000090917905DC01ED91FC910190F081E02D36
:1024100060E009958091780590917905DC01ED9156
:10242000FC910190F081E02D65E509956EE671E083
:1024300080917805909179050E949D0EE090780535
:10244000F090790561E771E0C7010E949D0E6EE68C
:1024500071E0C7010E949D0E609178057091790529
:10246000CE0101960E946D11BE016F5F7F4FCE01BC
:1024700007960E944A10CE0101960E9495101150B5
:1024800009F0ADCFCE0107960E9495102C960FB69D
:10249000F894DEBF0FBECDBFDF91CF911F91FF90AB
:1024A000EF900895EF92FF920F931F93CF93DF93D6
:1024B000EC018B01198218821B821A821D821C82F8
:1024C000CB010E94072A7C01BC01CE010E949D1015
:1024D000811109C0CE01DF91CF911F910F91FF9023
:1024E000EF900C948310FD82EC82B8018881998171
:1024F000DF91CF911F910F91FF90EF900C94002AE4
:10250000FF920F931F93CF93DF93CDB7DEB72C9736
:102510000FB6F894DEBF0FBECDBF68E075E0CE0108
:1025200001960E945212BE016F5F7F4FCE01079647
:102530000E949911CE0101960E949510CE01079636
:102540000E94D20F60E771E0CE0101960E945C11FB
:102550000B851C8503301105C8F00630110510F0FD
:1025600006E010E0EF81F885E00FF11FF0801082A7
:102570006F8178856E5F7F4FCE0101960E94251195
:102580008F819885080F191FF801F08289819A813F
:10259000009779F10E94D029633BF9E07F0781051C
:1025A000910521F167357B408105910511F587E59E
:1025B0009BE090937B0580937A0500917A051091BA
:1025C0007B05CE0101960E949510CE0107960E94D0
:1025D0009510C8012C960FB6F894DEBF0FBECDBF84
:1025E000DF91CF911F910F91FF90089583EB99E0B8
:1025F000E0CF10927B0510927A05DFCFCF92DF9269
:10260000EF92FF920F931F93CF93DF93CDB7DEB777
:1026100068970FB6F894DEBF0FBECDBF8C017B016B
:102620006A0181E080937C0541E050E068EC72E053
:102630008FE895E00E94041160E771E0CE014396B7
:102640000E945C118091780590917905DC01ED91F3
:10265000FC910084F185E02D0995892B61F0809132
:10266000780590917905DC01ED91FC910284F38568
:10267000E02D0995E7CF0E94801280917A05909114
:102680007B05833BB9E09B0739F06EEF74E087353B
:102690009B4021F010E068C160EF74E0CE01079626
:1026A0000E945212BE01695F7F4FCE0101960E94C7
:1026B0009911CE0101960E949510CE0107960E94B5
:1026C0009510D60114968D919C91409709F060C1A8
:1026D000B60183E895E00E943C116DE771E0CE0100
:1026E0000D960E945C1163E875E0CE010D960E9484
:1026F000F110BC01CE0107960E945311BE01695F23
:102700007F4FCE0101960E949911CE0101960E9441
:102710009510CE0107960E949510CE010D960E944D
:102720009510F80184819581409749F5B80189E8B1
:1027300095E00E943C116DE871E0CE010D960E947B
:102740005C1169E875E0CE010D960E94F110BC01A4
:10275000CE0107960E945311BE01695F7F4FCE01E3
:1027600001960E949911CE0101960E949510CE010A
:1027700007960E949510CE010D960E949510D701E4
:1027800014968D919C91809749F5B70185E995E064
:102790000E943C116DE971E0CE010D960E945C1122
:1027A00065E975E0CE010D960E94F110BC01CE01E5
:1027B00007960E945311BE01695F7F4FCE010196BB
:1027C0000E949911CE0101960E949510CE010796A4
:1027D0000E949510CE010D960E94951080917A0569
:1027E00090917B0561ED74E087359B4011F060ECC2
:1027F00074E0CE0107960E945212BE01695F7F4FBE
:10280000CE0101960E949911CE0101960E94951069
:10281000CE0107960E94951060EB74E0CE010796FA
:102820000E945212BE01695F7F4FCE0101960E9445
:102830009911CE0101960E949510CE0107960E9433
:10284000951061EA74E0CE0107960E945212BE0113
:10285000695F7F4FCE0101960E949911CE010196CA
:102860000E949510CE0107960E949510E091780580
:10287000F091790580E395E7A0E0B0E0848395834B
:10288000A683B78368E974E0CE0107960E945212CE
:10289000BE01695F7F4FCE0101960E949911CE0162
:1028A00001960E949510CE0107960E94951092E025
:1028B000E92EF12C6AE874E0CE0107960E945212CC
:1028C000BE01695F7F4FCE0101960E949911CE0132
:1028D00001960E949510CE0107960E949510609176
:1028E000780570917905CE0101960E946D11BE01A7
:1028F0006F5F7F4FCE0143960E944A10CE01019632
:102900000E9495106DEA71E0CE0101960E945C1163
:10291000BE016F5F7F4FCE0143960E942F10182F8C
:10292000CE0101960E94951068EE73E080E090E081
:10293000112309F44EC00E94500411E0EA94EF28DC
:1029400039F0EE24E394F12C112309F4B3CF11E014
:10295000E0917805F091790580ED97E0A0E0B0E096
:1029600084839583A683B783CE0143960E949510F6
:10297000812F68960FB6F894DEBF0FBECDBFDF91F2
:10298000CF911F910F91FF90EF90DF90CF9008951E
:1029900062EE74E0CE0101960E945212BE016F5F9A
:1029A0007F4FCE0107960E949911CE0101960E9499
:1029B00095108B859C85409739F4BE01695F7F4FE8
:1029C00083E895E00E943C11CE0107960E94951085
:1029D00084CE0E94500410E0B1CF0F931F93CF9389
:1029E000DF93CDB7DEB7AA970FB6F894DEBF0FBE60
:1029F000CDBF8091990590919A05892B59F068EC8B
:102A000072E080919505909196050E944B2F10E001
:102A1000892B69F110917C051123A9F160E771E020
:102A2000CE0101960E945C1165E975E0CE01079622
:102A30000E94531169E875E0CE010D960E94531172
:102A4000AE014F5F5F4FBE01695F7F4FCE010D96B4
:102A50000E94FE12182FCE010D960E949510CE01F5
:102A600007960E949510CE0101960E949510812F25
:102A7000AA960FB6F894DEBF0FBECDBFDF91CF91FF
:102A80001F910F9108956FE875E0CE0149960E945D
:102A9000531165E975E0CE014F960E9453116DE721
:102AA00075E0CE0185960E94531110927C05BE01FF
:102AB0006B5D7F4F8DE795E00E943C11BE01615E2A
:102AC0007F4F85E995E00E943C11BE01675E7F4F14
:102AD0008FE895E00E943C1160E771E0CE014396DB
:102AE0000E945C118091780590917905DC01ED914F
:102AF000FC910084F185E02D0995892B61F080918E
:102B0000780590917905DC01ED91FC910284F385C3
:102B1000E02D0995E7CF0E94801280917A0590916F
:102B20007B05833BB9E09B07A1F060E874E0873543
:102B30009B4089F0CE0143960E949510CE01859668
:102B40000E949510CE014F960E949510CE01499695
:102B50008CCF62E774E0CE0101960E945212BE0152
:102B60006F5F7F4FCE0107960E949911CE010796A5
:102B70000E949510CE0101960E94951066EB71E0BF
:102B8000CE0101960E945C116FE875E0CE010196BE
:102B90000E94F110BC01CE0107960E945311BE01A4
:102BA000695F7F4FCE010D960E949911CE010D965F
:102BB0000E949510CE0107960E949510CE010196B5
:102BC0000E94951067EC71E0CE0101960E945C11A5
:102BD00065E975E0CE0101960E94F110BC01CE01BD
:102BE00007960E945311BE01695F7F4FCE010D967B
:102BF0000E949911CE010D960E949510CE01079664
:102C00000E949510CE0101960E94951068ED71E02A
:102C1000CE0101960E945C116DE775E0CE01019630
:102C20000E94F110BC01CE0107960E945311BE0113
:102C3000695F7F4FCE010D960E949911CE010D96CE
:102C40000E949510CE0107960E949510CE01019624
:102C50000E94951062E674E0CE0101960E94521225
:102C6000BE016F5F7F4FCE0107960E949911CE0182
:102C700007960E949510CE0101960E94951063E57B
:102C800074E0CE0101960E945212BE016F5F7F4F29
:102C9000CE0107960E949911CE0107960E949510C9
:102CA000CE0101960E94951080917A0590917B0546
:102CB00087359B4009F09CC069EE71E0CE0101961A
:102CC0000E945C11BE016F5F7F4FCE0107960E948C
:102CD0009911CE0107960E949510CE0101960E948F
:102CE000951065E374E0CE0101960E945212BE0178
:102CF0006F5F7F4FCE0107960E949911CE01079614
:102D00000E949510CE0101960E949510E0917805E1
:102D1000F091790580E69AEEA0E0B0E08483958397
:102D2000A683B7836CE274E0CE0101960E94521232
:102D3000BE016F5F7F4FCE0107960E949911CE01B1
:102D400007960E949510CE0101960E9495106FE1A2
:102D500074E0CE0101960E945212BE016F5F7F4F58
:102D6000CE0107960E949911CE0107960E949510F8
:102D7000CE0101960E9495106091780570917905B9
:102D8000CE0101960E946D11BE016F5F7F4FCE0193
:102D900043960E944A10CE0101960E949510E09140
:102DA0007805F091790580ED97E0A0E0B0E08483AC
:102DB0009583A683B78368EE73E080E090E00E947D
:102DC00050046DEA71E0CE0101960E945C11BE01D3
:102DD0006F5F7F4FCE0143960E942F10082FCE01C8
:102DE00001960E94951011E00111A4CE10E0A2CE30
:102DF00062E474E0CE0101960E94521263CF3F92CA
:102E00004F925F926F927F928F929F92AF92BF92FA
:102E1000CF92DF92EF92FF920F931F93CF93DF93A6
:102E2000CDB7DEB72C970FB6F894DEBF0FBECDBF7F
:102E30007C016B018091780590917905DC01ED9121
:102E4000FC910084F185E02D0995892B61F080913A
:102E5000780590917905DC01ED91FC910284F38570
:102E6000E02D0995E7CF0BE010E080E3882E85E7A1
:102E7000982EA12CB12C90ED492E97E0592E612C63
:102E8000712C015009F4F8C1B70180917805909137
:102E900079050E94E306B601809178059091790545
:102EA0000E94E3066EE671E08091780590917905C5
:102EB0000E949D0E6091780570917905CE0107966C
:102EC0000E946D1161E072E0CE0101960E945C11DA
:102ED000BE016F5F7F4FCE0107960E942F10382EE4
:102EE000CE0101960E949510332009F414C160911F
:102EF000780570917905FB0184829582A682B7825C
:102F0000CE0101960E946D11BE016F5F7F4FCE0111
:102F100007960E944A10CE0101960E949510E091FA
:102F20007805F091790544825582668277826AEF4E
:102F300071E0CE0101960E945C11BE016F5F7F4F70
:102F4000CE0107960E942F10382ECE0101960E94C6
:102F5000951031108EC164E072E0CE0101960E949E
:102F60005C11BE016F5F7F4FCE0107960E942F104C
:102F7000382ECE0101960E949510332009F470C0BE
:102F8000EB84FC84F8E0EF16F10408F466C00F81CE
:102F9000188560E270E0C80107960E94402F0097F4
:102FA00009F45BC09C01201B310B89010F5F1F4F8F
:102FB000E016F10628F4902F812F8701E92EF82ED4
:102FC00060E771E0CE0101960E945C11CB84DC8445
:102FD0000C151D05C0F4EC14FD0408F46701EF8125
:102FE000F885EC0DFD1DF08010826F817885600FF3
:102FF000711FCE0101960E9425118F819885C80E00
:10300000D91ED601FC92BE016F5F7F4F8BE995E020
:103010000E944A10CE0101960E94951002E010E035
:10302000CE0107960E949510C8012C960FB6F89411
:10303000DEBF0FBECDBFDF91CF911F910F91FF90EB
:10304000EF90DF90CF90BF90AF909F908F907F9048
:103050006F905F904F903F9008950FEF1FEFA6CFB6
:103060006BE072E0CE0101960E945C11BE016F5FC1
:103070007F4FCE0107960E942F10382ECE01019669
:103080000E949510332019F00E94ED143FC063E1B7
:1030900072E0CE0101960E945C11BE016F5F7F4F0E
:1030A000CE0107960E942F10382ECE0101960E9465
:1030B0009510332019F010E000E0B2CF64E272E026
:1030C000CE0101960E945C11BE016F5F7F4FCE0161
:1030D00007960E942F10382ECE0101960E9495105F
:1030E0003110C7C060E372E0CE0101960E945C110E
:1030F000BE016F5F7F4FCE0107960E942F10382EC2
:10310000CE0101960E9495103110BECFCE010796D8
:103110000E949510B6CE6AE372E0CE0101960E943D
:103120005C11BE016F5F7F4FCE0107960E942F108A
:10313000382ECE0101960E9495103110BCCF68E464
:1031400072E0CE0101960E945C11BE016F5F7F4F5D
:10315000CE0107960E942F10382ECE0101960E94B4
:103160009510311091CF63E572E0CE0101960E9477
:103170005C11BE016F5F7F4FCE0107960E942F103A
:10318000382ECE0101960E949510332039F068EE5A
:1031900073E080E090E00E945004B8CF6EE572E0EA
:1031A000CE0101960E945C11BE016F5F7F4FCE0180
:1031B00007960E942F10382ECE0101960E9495107E
:1031C000311062CF65E672E0CE0101960E945C117B
:1031D000BE016F5F7F4FCE0107960E942F10382EE1
:1031E000CE0101960E94951031104ECF65E872E035
:1031F000CE0101960E945C11BE016F5F7F4FCE0130
:1032000007960E942F10382ECE0101960E9495102D
:10321000332029F01F5F1A3008F4B9CF35CF6AE8A0
:1032200072E0CE0101960E945C11BE016F5F7F4F7C
:10323000CE0107960E942F10382ECE0101960E94D3
:103240009510311021CF63E172E0CE0101960E940A
:103250005C11BE016F5F7F4FCE0107960E942F1059
:10326000382ECE0101960E949510332009F40CCF20
:1032700022CF01E010E0D4CE10E000E0D5CE4F9296
:103280005F926F927F928F929F92AF92BF92CF92F6
:10329000DF92EF92FF920F931F93CF93DF93CDB7FF
:1032A000DEB76B970FB6F894DEBF0FBECDBFF82E1A
:1032B00020E030E048EC52E46091A5037091A60351
:1032C0008091A7039091A8030E94C32A0E94082D11
:1032D0007093A3036093A2038091A4039091A10330
:1032E00090FB80F99091A00390FB81F990919F034E
:1032F00090FB82F990919E0390FB83F9806180930B
:10330000A40365E972E0CE0143960E945C1146E099
:1033100050E06DE972E0CE0143960E94C5104AE08C
:103320008E010F5F1F4FB8018F2D90E00E94102A71
:10333000F80101900020E9F73197AF01401B510BD4
:10334000B801CE0143960E94C51041E050E062EA08
:1033500072E0CE0143960E94C51060E771E0CE0195
:103360000D960E945C1142EAC42E43E0D42E54EA2A
:10337000A52E52E0B52E7E0189E1E80EF11CF60182
:1033800081916F011F928F93BF92AF92FF92EF9244
:103390000E94782FF70101900020E9F73197AF01E3
:1033A0004E195F09B701CE010D960E94C5100F900E
:1033B0000F900F900F900F900F90F5EACF16F3E05B
:1033C000DF06E9F69AE0A92EB12C28EE422E23E082
:1033D000522E612C712C34EA832E32E0932EC09051
:1033E000D704D090D804C114D10409F47EC08091D0
:1033F000C6049091C704009709F0C2C08091D5041B
:103400009091D6042091CB043091CC04829FB001DE
:10341000839F700D929F700D11242091D1043091E3
:10342000D204620F731F2091C9043091CA04215045
:1034300031098217930708F09EC001969093D60435
:103440008093D5044091CB045091CC04C8010E94D4
:10345000372F81E0C81AD108D092D804C092D7047F
:103460000E940105A30192010E94B92B89819A81D2
:10347000AB81BC81281B390B4A0B5B0B2093990352
:1034800030939A0340939B0350939C038D818093C8
:103490009D0389E9C82E83E0D82EF60181916F0142
:1034A0001F928F939F928F92FF92EF920E94782F9C
:1034B000F70101900020E9F73197AF014E195F093C
:1034C000B701CE010D960E94C5100F900F900F907E
:1034D0000F900F900F90FEE9CF16F3E0DF06E9F6AC
:1034E00081E0A81AB10809F07ACF10929803BE01C2
:1034F000635F7F4FC8010E945311BE016D5E7F4F15
:10350000CE0107960E945311B801CE0107960E9482
:10351000FF167C01CE0107960E949510C8010E94FB
:1035200095108091980392E0E916F10409F451C0D6
:10353000853008F04EC0BE01635F7F4FC8010E9416
:103540005311BE016D5E7F4FCE0107960E9453114D
:10355000B801CE0107960E94FF167C01CE010796A6
:103560000E949510C8010E949510809198038F5F6A
:1035700080939803D6CF1092D6041092D50462CFD0
:10358000019709F06DCF8091D3049091D4040097F6
:10359000D9F001979093D4048093D3042091CB0465
:1035A0003091CC048091D3049091D404289FB00131
:1035B000299F700D389F700D11248091D104909136
:1035C000D204680F791F3ECF8091C9049091CA043C
:1035D000E0CF8530E9F06BE975E0C8010E94531136
:1035E000B80187EA95E00E944A10C8010E94951030
:1035F0008091A7059091A805009749F10E94D029D4
:1036000021E0672B682B692B09F420E020939703B6
:10361000CE010D960E949510CE0143960E94951002
:103620006B960FB6F894DEBF0FBECDBFDF91CF9182
:103630001F910F91FF90EF90DF90CF90BF90AF90D0
:103640009F908F907F906F905F904F90089560E073
:1036500070E0CB01D5CFCF92DF92EF92FF920F9324
:103660001F93CF936B017C01C42F0E940105009131
:103670006103109162032091630330916403C00ED3
:10368000D11EE21EF31E6C157D058E059F0508F404
:1036900070C00E9401050E94DB116FE070E080E0C5
:1036A00090E00E9450040E94920D809177039091C7
:1036B00078030197B1F50E9401050E940105C090B1
:1036C0005503D0905603E0905703F09058036C19BF
:1036D0007D098E099F0928EE33E040E050E00E940A
:1036E000B92BCA01B9010E94622A20E030E040E013
:1036F0005FE30E94952C0E94012D462F60937D036D
:103700006091790370917A0380917B0390917C039F
:103710000E94060F109278031092770381E0809345
:10372000A0038C2F0E943F191092A1031092A003B6
:103730001092720310927303109274030E940D058D
:1037400061E087E00E9405030E9401056093610328
:103750007093620380936303909364030E94AC0EA2
:10376000CF911F910F91FF90EF90DF90CF900C942D
:103770000105CF911F910F91FF90EF90DF90CF90B7
:103780000895CF93DF93CDB7DEB72C970FB6F8949B
:10379000DEBF0FBECDBF80917A0590917B05833B44
:1037A000994009F017C267E074E0CE0107960E94C5
:1037B0005212BE01695F7F4FCE0101960E9499119E
:1037C000CE0101960E949510CE0107960E94951099
:1037D0006FEE73E0CE0107960E945212BE01695F40
:1037E0007F4FCE0101960E949911CE0101960E9451
:1037F0009510CE0107960E94951066ED73E0CE01FC
:1038000007960E945212BE01695F7F4FCE0101965A
:103810000E949911CE0101960E949510CE01079643
:103820000E9495106EEB73E0CE0107960E94521233
:10383000BE01695F7F4FCE0101960E949911CE01B2
:1038400001960E949510CE0107960E94951066EA97
:1038500073E0CE0107960E945212BE01695F7F4F4E
:10386000CE0101960E949911CE0101960E949510F9
:10387000CE0107960E9495106AE873E0CE01079684
:103880000E945212BE01695F7F4FCE0101960E94D5
:103890009911CE0101960E949510CE0107960E94C3
:1038A000951061E773E0CE0107960E945212BE01A7
:1038B000695F7F4FCE0101960E949911CE0101965A
:1038C0000E949510CE0107960E94951069E573E05D
:1038D000CE0107960E945212BE01695F7F4FCE0152
:1038E00001960E949911CE0101960E949510CE0179
:1038F00007960E94951062E473E0CE0107960E943D
:103900005212BE01695F7F4FCE0101960E9499114C
:10391000CE0101960E949510CE0107960E94951047
:1039200066E273E0CE0107960E945212BE01695F03
:103930007F4FCE0101960E949911CE0101960E94FF
:103940009510CE0107960E9495106DE073E0CE01B0
:1039500007960E945212BE01695F7F4FCE01019609
:103960000E949911CE0101960E949510CE010796F2
:103970000E94951065EF72E0CE0107960E945212E8
:10398000BE01695F7F4FCE0101960E949911CE0161
:1039900001960E949510CE0107960E9495106EED3B
:1039A00072E0CE0107960E945212BE01695F7F4FFE
:1039B000CE0101960E949911CE0101960E949510A8
:1039C000CE0107960E94951062EC72E0CE01079638
:1039D0000E945212BE01695F7F4FCE0101960E9484
:1039E0009911CE0101960E949510CE0107960E9472
:1039F000951069EA72E0CE0107960E945212BE014C
:103A0000695F7F4FCE0101960E949911CE01019608
:103A10000E949510CE0107960E94951061E972E010
:103A2000CE0107960E945212BE01695F7F4FCE0100
:103A300001960E949911CE0101960E949510CE0127
:103A400007960E9495106AE772E0CE0107960E94E1
:103A50005212BE01695F7F4FCE0101960E949911FB
:103A6000CE0101960E949510CE0107960E949510F6
:103A70006EE572E0CE0107960E945212BE01695FA8
:103A80007F4FCE0101960E949911CE0101960E94AE
:103A90009510CE0107960E94951065E472E0CE0164
:103AA00007960E945212BE01695F7F4FCE010196B8
:103AB0000E949911CE0101960E949510CE010796A1
:103AC0000E9495106DE272E0CE0107960E9452129C
:103AD000BE01695F7F4FCE0101960E949911CE0110
:103AE00001960E949510CE0107960E94951066E1FE
:103AF00072E0CE0107960E945212BE01695F7F4FAD
:103B0000CE0101960E949911CE0101960E94951056
:103B1000CE0107960E9495106AEF71E0CE010796DC
:103B20000E945212BE01695F7F4FCE0101960E9432
:103B30009911CE0101960E949510CE0107960E9420
:103B4000951061EE71E0CE0107960E945212BE01FF
:103B5000695F7F4FCE0101960E949911CE010196B7
:103B60000E949510CE0107960E94951069EC71E0B5
:103B7000CE0107960E945212BE01695F7F4FCE01AF
:103B800001960E949911CE0101960E949510CE01D6
:103B900007960E94951062EB71E0CE0107960E9495
:103BA0005212BE01695F7F4FCE0101960E949911AA
:103BB000CE0101960E949510CE0107960E949510A5
:103BC00081E02C960FB6F894DEBF0FBECDBFDF911B
:103BD000CF91089580E0F5CFEF92FF920F931F935E
:103BE000CF93DF93F62EE82EEC010991002E000C06
:103BF000110BC8010E94232F892B91F0C8010E944C
:103C00002F2FFE01319780838C2F8E198F1568F32B
:103C100081E0DF91CF911F910F91FF90EF90089578
:103C200080E0F7CFEBE0F3E080819181A281B38166
:103C30000196A11DB11D80839183A283B38347E4C4
:103C400050E070E060E0CF010C94912B0F931F9334
:103C5000CF93DF93CDB7DEB72C970FB6F894DEBFC6
:103C60000FBECDBF60E271E0CE0101960E945212FC
:103C7000BE016F5F7F4FCE0107960E949911CE0162
:103C800001960E9495100B851C850115110539F5CB
:103C900010920F03CE0107960E94951010921F03F9
:103CA00081E1E9EBF2E0A0E2B3E001900D928A95A8
:103CB000E1F781E2E9EAF2E0A1E3B3E001900D92DD
:103CC0008A95E1F70E94121E2C960FB6F894DEBF7B
:103CD0000FBECDBFDF91CF911F910F91089500319D
:103CE000110510F000E110E06F817885A8018FE0E8
:103CF00093E00E94692FF801E15FFC4F1082CACF68
:103D00001F920F920FB60F9211242F933F938F9310
:103D10009F93AF93BF938091810390918203A09171
:103D20008303B09184033091800326E0230F2D3765
:103D300058F50296A11DB11D209380038093810345
:103D400090938203A0938303B093840380918503AF
:103D500090918603A0918703B09188030196A11DDD
:103D6000B11D8093850390938603A0938703B0933E
:103D70008803BF91AF919F918F913F912F910F90A9
:103D80000FBE0F901F90189529E8230F0396A11DD1
:103D9000B11DD2CF1F920F920FB60F9211248F93A5
:103DA0009F938091E1009091E100937F9093E100D7
:103DB00083FF0FC01092E90091E09093EB00109206
:103DC000EC0092E39093ED001092960398E09093AC
:103DD000F00082FF22C093E09093E9009091F200FE
:103DE000992319F09AE39093E8009091ED029923BA
:103DF00041F09091ED0291509093ED02911101C02C
:103E00005D9A90919503992341F09091950391507B
:103E100090939503911101C0289A84FF18C0809156
:103E2000E2008E7E81608093E2008091E1008F7ECF
:103E30008093E1008091EE028E7E80618093EE029D
:103E40009F918F910F900FBE0F901F90189580FF3C
:103E5000F7CF8091E2008E7E80618093E2008091B6
:103E6000E1008E7E8093E1008091EE028E7E816083
:103E7000E5CF1F920F920FB60F921124CF92DF92CF
:103E8000EF92FF920F931F932F933F934F935F9364
:103E90006F937F938F939F93AF93BF93EF93FF9312
:103EA000CF93DF93CDB7DEB76C97DEBFCDBF109257
:103EB000E9008091E80083FF25C068E0CE014596C7
:103EC0000E94A80682EF8093E8008D8987FF39C0A1
:103ED0009091E80090FFFCCF982F907609F034C1C4
:103EE0009E894F89588D2F89F88C911131C0803867
:103EF00061F58091EF028093F1001092F1008EEF56
:103F00008093E8006C960FB6F894DEBF0FBECDBF6D
:103F1000DF91CF91FF91EF91BF91AF919F918F91E1
:103F20007F916F915F914F913F912F911F910F91D1
:103F3000FF90EF90DF90CF900F900FBE0F901F90EB
:103F400018959EEF9093E800C7CF1092F100D5CF5F
:103F5000913059F48111D3CF4130510581F68091D0
:103F6000EF028D7F8093EF02CACF933049F4811125
:103F7000C6CF4130510519F68091EF028260F2CF31
:103F8000953041F48091E80080FFFCCF20682093B9
:103F9000E300B5CF963009F0A9C00B8D1C8D22E04F
:103FA0001092E9001092EB021092EA02F2122EC077
:103FB0001092E9021092E8020E9477061F8299E0AF
:103FC0009983FA8291E09E8390EA98879AEF998785
:103FD0002091EA023091EB02275F3F4F3C832B8315
:103FE0008D831092E9001092EB021092EA02109376
:103FF000E9020093E80249E050E0BE016F5F7F4FA5
:1040000080E00E9451060E94770679CF1093E90262
:104010000093E8020E94F102DC0112960D911C91BE
:104020000115110509F451C1D801ED91FC910480ED
:10403000F581E02DBE016B5E7F4FC80109950097A9
:1040400009F03EC1F80100851185EACFF3E0FF12C7
:104050000EC08F89882309F440C0823061F440E8A3
:1040600062E18DE091E00E942E22811148CF81E231
:104070008093EB0047CF813029F440E868E084E08A
:1040800091E0F1CF833099F70E94F102DC011296A2
:10409000ED90FC908E010F5F1F4F6801E114F10459
:1040A00079F0D701ED91FC910680F781E02DB80100
:1040B000C7010995080F111DF701E084F184EECFC7
:1040C000D8011C92F60101900020E9F73197BF0159
:1040D0006C197D0940E0C601C6CF6EEE70E0FB01B1
:1040E000449150E080E80E94510609CF973009F4CE
:1040F000BECF983021F481E08093F10000CF993059
:1041000009F0FDCE837009F0B2CFE7E1F1E081E084
:1041100031E096E32191222371F08093E9003093FE
:10412000EB00DF0111972C912093EC009093ED00B0
:104130008F5F873079F78EE78093EA001092EA006C
:104140008F8980939603DBCE8B8D9C8D1092E90036
:104150001092EB021092EA029093E9028093E80237
:10416000898D811192C08E899D89913A49F481325D
:1041700009F07DCF47E050E064E071E080E0B3CF2C
:10418000913209F074CF833269F48F89988DB0E051
:10419000A0E08093000190930101A0930201B093ED
:1041A0000301ADCE803269F48091E80082FFFCCF3C
:1041B00067E084E091E00E94A8068BEF8093E8001E
:1041C0009ECE823209F09BCE8F8980930B01EEEF59
:1041D000FFE7859194918B3F9C4D51F1E0E0F8E031
:1041E0008091040190910501A0910601B091070111
:1041F000803B9440A105B105F1F480910B0180FD55
:104200001AC0EE3F8AE0F80789F587E797E79183C0
:104210008083809160008093EC0288E19BE00FB680
:10422000F894A895809360000FBE9093600067CECD
:10423000EEEFFAE0D5CF808191818737974709F07B
:104240005ECEA89580916000886180936000809127
:10425000EC0280936000EE3F2AE0F20789F0809143
:10426000FE0A9091FF0A9183808349CE80819181DB
:104270008737980751F29093FF0A8093FE0AC5CFC3
:104280001092FF0A1092FE0A3ACE0E94F102DC015F
:1042900012960D911C910115110509F4E8CED80173
:1042A000ED91FC910190F081E02DBE016B5E7F4F9E
:1042B000C8010995811123CEF80100851185EBCF46
:1042C000181619060CF41BCED2CEF1E0FF12BECEAA
:1042D00062EF70E004CF1F920F920FB60F9211247D
:1042E0002F933F934F935F936F937F938F939F93FE
:1042F000AF93BF93EF93FF938BED94E00E946F0712
:10430000FF91EF91BF91AF919F918F917F916F91AD
:104310005F914F913F912F910F900FBE0F901F9083
:1043200018951F920F920FB60F9211242F938F930F
:104330009F93EF93FF93E091EB04F091EC04808165
:10434000E091F104F091F20482FD1BC09081809114
:10435000F4048F5F8F732091F504821741F0E09190
:10436000F404F0E0E552FB4F958F8093F404FF9145
:10437000EF919F918F912F910F900FBE0F901F90F3
:1043800018958081F4CF1F920F920FB60F921124CF
:104390002F933F934F935F936F937F938F939F934D
:1043A000AF93BF93EF93FF9348E950E064E970E067
:1043B00090E080E00E940209FF91EF91BF91AF91E0
:1043C0009F918F917F916F915F914F913F912F912D
:1043D0000F900FBE0F901F9018951F920F920FB65F
:1043E0000F9211242F933F934F935F936F937F937B
:1043F0008F939F93AF93BF93EF93FF9348E850E061
:1044000064E870E081E090E00E940209FF91EF9182
:10441000BF91AF919F918F917F916F915F914F91DC
:104420003F912F910F900FBE0F901F9018951F92E4
:104430000F920FB60F9211248F930FB6F894A89590
:1044400080916000886180936000109260000FBED0
:104450008F910F900FBE0F901F901895EF92FF92C3
:104460000F931F93CF93DF93F82E192FE62E042F6F
:1044700081E0860F880F0E94230683E00E942306B6
:10448000CF2DD12FEC0EFD2EF11CCE15DF05B9F08E
:1044900007FF13C0FE0184910E942306182F80E0BD
:1044A0000E942306812321968111EFCFDF91CF91C6
:1044B0001F910F91FF90EF9008958881EDCF81E0DB
:1044C000F5CF1092DE041092DD0488EE93E0A0E0B8
:1044D000B0E08093DF049093E004A093E104B093F4
:1044E000E20423E431E03093DC042093DB042DEC80
:1044F00030E03093E8042093E7042CEC30E0309374
:10450000EA042093E90428EC30E03093EC04209393
:10451000EB0429EC30E03093EE042093ED042AEC18
:1045200030E03093F0042093EF042EEC30E0309331
:10453000F2042093F1041092F4041092F504109206
:10454000F6041092F7041092B8031092B703809308
:10455000B9039093BA03A093BB03B093BC0385E562
:1045600091E09093B6038093B5038FEF9FEF909304
:10457000C2038093C10360E771E087EA95E00E947F
:104580005C11E091C504E83108F094C081E08E0F21
:104590008093C504E093A10588E0E89FF001112411
:1045A000EB5FFB4F8CED95E0928381831092A60523
:1045B0008CE091E09093A5058093A4058BED94E0A9
:1045C000909379058093780510927B0510927A0577
:1045D00081E080937C056AEC72E08DE795E00E94B3
:1045E0005C1163ED72E083E895E00E945C1168EC79
:1045F00072E089E895E00E945C1168EC72E08FE857
:1046000095E00E945C1168EC72E085E995E00E94FB
:104610005C1160E771E08BE995E00E945C11E0912C
:104620007805F091790580ED97E0A0E0B0E0848313
:104630009583A683B78384E690E09093CA04809321
:10464000C90485E090E09093CC048093CB04109251
:10465000C7041092C6041092C8041092DA04109293
:10466000D90484EF91E00E943C2D9093D204809372
:10467000D104892B19F51092CD041092CE0410921A
:10468000CF041092D0048FEF8093AD051092AF0548
:104690001092AE051092B9051092B8058FEF9FEFFA
:1046A000DC018093B4059093B505A093B605B09353
:1046B000B70508958FEF8093A10580CF84EF91E037
:1046C000A0E0B0E08093CD049093CE04A093CF04FB
:1046D000B093D00485EA9AE59093DA048093D904E4
:1046E0001092D4041092D3041092D6041092D504E0
:1046F0001092D8041092D704C6CFCF93DF93CDB7D2
:10470000DEB7CC54D1090FB6F894DEBF0FBECDBFD3
:10471000789484B5826084BD84B5816084BD85B59C
:10472000826085BD85B5816085BD80916E008160A8
:1047300080936E001092810080918100826080934E
:104740008100809181008160809381008091800050
:1047500081608093800080919100826080939100BD
:1047600080919100816080939100809190008160A0
:10477000809390008091C10084608093C1008091FB
:10478000C10082608093C1008091C10081608093EC
:10479000C1008091C30081608093C3008091C000FC
:1047A00082608093C0008091C20081608093C200CB
:1047B00080917A00846080937A0080917A00826090
:1047C00080937A0080917A008E7F80937A00809126
:1047D0007A00806880937A00109296031092EF021C
:1047E0001092EE028091D70081608093D70080EA1A
:1047F0008093D80089B58F7E89BD89B5826089BDD7
:1048000009B400FEFDCF61E070E080E090E00E941E
:1048100050048091D8008F7C80618093D800809173
:10482000E000807F8093E0008091E1008E7E8093A5
:10483000E1008DE08093E200559A209A61E086E0E5
:104840000E94760360E086E00E9405036AE070E063
:1048500080E090E00E94500461E086E00E94050341
:104860008FEF9FEF9093C2038093C10368E873E1D9
:1048700080E090E00E94500461E087E00E947603AF
:1048800060E087E00E94050381E090E090937F0361
:1048900080937E0361E088E00E94760361E089E016
:1048A0000E94760360E082E10E94760310929E03EC
:1048B00060E083E10E94760310929F0380910303DE
:1048C000811145C01092F5021092F4028FEF80938F
:1048D000F8028093F9028093FA028093FB0280939E
:1048E000FC028093FD0281E08093FE02109200039F
:1048F0001092FF021092F7021092F6028091AF031D
:104900009091B003892B31F482EF92E09093B00341
:104910008093AF03E091F002F091F102309721F023
:1049200082EF92E09583848382EF92E09093F1028C
:104930008093F002109202031092010381E391E050
:104940009093F3028093F20281E0809303033E9AF6
:1049500082E793E09093F5028093F40281E090E087
:10496000909300038093FF028091B0059091B10570
:10497000A091B205B091B305843C29E09207A1054E
:10498000B10520F484EC99E0A0E0B0E08093B0059C
:104990009093B105A093B205B093B30588E28093DC
:1049A000AD0560E087E00E9405038FEF80937203FE
:1049B00010927303109274030E940D05E091EB04B2
:1049C000F091EC0482E08083E091E704F091E80448
:1049D0001082E091E904F091EA0480E18083109272
:1049E000F304E091EF04F091F00486E08083E0911D
:1049F000ED04F091EE04808180618083E091ED040C
:104A0000F091EE04808188608083E091ED04F09164
:104A1000EE04808180688083E091ED04F091EE04E3
:104A200080818F7D808368EB7BE080E090E00E9456
:104A300050041092720310927303109274030E9438
:104A40000D051092A0031092A10364EF71E080E0C5
:104A500090E00E94500460ED77E080E090E00E94DA
:104A600050040E94C11B0E94DB1147E450E070E03B
:104A700060E08BE093E00E94812B80910B0390918A
:104A80000C03A0910D03B0910E038F3F9F4FAF4FCA
:104A9000BF4F51F410920B0310920C0310920D03B0
:104AA00010920E030E94261E0E9401056B017C01DC
:104AB0000E9401056C197D098E099F0960317742BA
:104AC0008105910548F568EC70E080E090E00E9477
:104AD000500410910B016AE070E080E090E00E94C9
:104AE0005004111106C085EB93E00E94E808892B61
:104AF000F9F2CE0101960E94960F0197D1F78981B4
:104B0000833309F4BAC00CF04DC0813309F465C099
:104B10000CF09BC0803369F78FEF80937203109283
:104B20007303109274030E940D056FE073E0CE01D1
:104B300001960E945C1161E373E0CE018F5B9F4F91
:104B40000E945C1160E273E0CE01895B9F4F0E947E
:104B50005C11AE014F5F5F4FBE016F5B7F4FCE01B7
:104B6000895B9F4F0E94FE12182FCE01895B9F4FD9
:104B70000E949510CE018F5B9F4F0E949510CE0131
:104B800001960E949510111199C060E177E280E0D2
:104B900090E00E94500464E670E080E090E00E94A3
:104BA0005004C3CF823509F47AC0823709F477C044
:104BB000843309F09ECFCE0101960E94960F60E2E9
:104BC000CE0101960E94EC1D882309F492CF81E268
:104BD000FE013196A1E3B3E049C068E075E0CE0183
:104BE0008F5B9F4F0E945212BE016F5B7F4FCE01C1
:104BF000895B9F4F0E949911CE018F5B9F4F0E944E
:104C00009510CE01895B9F4F0E94D20FCE01895B28
:104C10009F4F0E94951060E271E0CE018F5B9F4F25
:104C20000E945212BE016F5B7F4FCE01895B9F4F86
:104C30000E949911CE018F5B9F4F0E949510CE016B
:104C4000895B9F4F0E94951054CFCE0101960E9420
:104C5000960F60E1CE0101960E94EC1D882309F4B5
:104C600048CF81E1FE013196AFE0B3E001900D92B3
:104C70008A95E1F70E94121E3CCFCE0101960E9458
:104C8000960F60E1CE0101960E94EC1D882309F485
:104C900030CF81E1FE013196A0E2B3E0E7CFCE0153
:104CA00001960E94960F019709F023CF89818F7D8D
:104CB000893509F01ECF0E94261E1BCF1092720369
:104CC00010E810937303109274030E940D0560EDB9
:104CD00077E080E090E00E945004109272031092FE
:104CE0007303109274030E940D050E94A703109293
:104CF000720310937303109274030E940D0564E60F
:104D000070E080E090E00E94500430E02091720357
:104D1000222321F0239F212D09F02F5F209372037E
:104D200020917303222321F0239F212D09F02F5F6F
:104D30002093730320917403222321F0239F212DBC
:104D400009F02F5F2093740311240E940D0564E67F
:104D500070E080E090E00E94500410927203109383
:104D60007303109274030E940D0564E670E080E006
:104D700090E00E94500410927203109273031092FC
:104D800074030E940D0561E087E00E9405030E9404
:104D900001050E94920D8091D80080628093D80016
:104DA00089B58D7F89BD8091D8008F778093D80099
:104DB00082E00E943F190E94AC0E33243A9498EE90
:104DC000492E93E0592E612C712C01E010E024E172
:104DD000222E32E0832E912C80E0A82E80E0B82E87
:104DE00080917E0390917F03039781F540917D032D
:104DF000442351F06091790370917A0380917B0391
:104E000090917C030E94060F109278031092770312
:104E100061E087E00E94050360E089E00E940503ED
:104E200060E088E00E9405038091D7049091D80447
:104E3000892B41F041E060EC74ED81E090E00E944C
:104E40002B1BF2CF10927F0310927E0380917E0382
:104E500090917F03892B09F087C080917503909111
:104E60007603883027E0920784F5099690937603BD
:104E70008093750360E087E00E9405032092AD05F2
:104E80003092720310927303109274030E940D0506
:104E900064E670E080E090E00E945004109272039B
:104EA00010927303109274030E940D0561E087E075
:104EB0000E94050330E020E050E040E069E070E04F
:104EC00081E793E00E94B50AC8CF80916F0390916B
:104ED00070038837910584F5099690937003809349
:104EE0006F0360E087E00E9405032092AD053092D9
:104EF000720330927303109274030E940D0564E6EE
:104F000070E080E090E00E945004109272031092D2
:104F10007303109274030E940D0561E087E00E9404
:104F2000050330E020E050E040E069E070E081E718
:104F300093E00E94B50AC9CF6AE070E080E090E09B
:104F40000E94500442E060E070E0CB010E942B1B05
:104F50001092700310926F0380919703811104C027
:104F600010937F0300937E03E0907E03F0907F0315
:104F700081E0E816F10409F04FC010927603109218
:104F800075030E94010560936B0370936C0380931B
:104F90006D0390936E03F0926A03E09269030E949E
:104FA0000105609365037093660380936703909394
:104FB00068030E940105609361037093620380930C
:104FC0006303909364030E94010561E088E00E94FE
:104FD000050361E070E080E090E00E94500461E031
:104FE00089E00E94050361E070E080E090E00E94AB
:104FF000500482E10E9409049093600380935F0350
:1050000060E088E00E94050360E089E00E940503FB
:1050100090927F0380927E0380917E0390917F0324
:10502000029709F071C180919703882331F083E0E2
:1050300090E090937F0380937E030E94010541E0FE
:1050400060EC74ED81E090E00E942B1B0E94010552
:10505000AB01BC018091650390916603A091670349
:10506000B09168038054984DA64FBF4F4817590719
:105070006A077B0710F00E94630E0E940105AB01D6
:10508000BC0180915B0390915C03A0915D03B091A2
:105090005E0388519C4FAF4FBF4F84179507A607FB
:1050A000B70750F40E94010560935B0370935C03A3
:1050B00080935D0390935E030E940105C0906B0393
:1050C000D0906C03E0906D03F0906E036C197D0935
:1050D0008E099F09603375478105910598F00E94FC
:1050E00001056C197D098E099F096A337547810591
:1050F000910540F48091690390916A03019711F43E
:105100000E94630E0E940105AB01BC0180915B030C
:1051100090915C03A0915D03B0915E030196A11D87
:10512000B11D84179507A607B70708F4EDC061E025
:1051300088E00E94050361E070E080E090E00E945A
:10514000500461E089E00E94050361E070E080E0C6
:1051500090E00E94500482E10E9409047C01909337
:105160005A038093590361E070E080E090E00E9470
:10517000500460E089E00E94050360E088E00E943E
:10518000050380915F03909160030297E816F9068A
:105190000CF0C6C08091770390917803892B31F58C
:1051A0000E9401050E940105A30192010E94B92BF2
:1051B000CA01B9010E94622A20E030E040E05FE3CA
:1051C0000E94952C0E94012D6093790370937A03BD
:1051D00080937B0390937C030E94010560935503A9
:1051E0007093560380935703909358030E940105D0
:1051F0000E940105209155033091560340915703B9
:1052000050915803621B730B840B950BA301920101
:105210000E94B92BCA01B9010E94622A20E030E045
:1052200040E05FE30E94952C0E94012D462F609381
:105230007D03109378030093770310935403009336
:1052400053036A3FE0F06091790370917A03809193
:105250007B0390917C030E94060F109278031092BA
:1052600077031092540310925303809152038F5F7F
:1052700080935203833018F081E080939E030E9454
:1052800001056093650370936603809367039093B1
:1052900068030E94010560936B0370936C03809315
:1052A0006D0390936E030E9401052091530330918A
:1052B0005403809177039091780328173907B1F050
:1052C0006091790370917A0380917B0390917C03C4
:1052D00040917D030E94060F80917D03843020F071
:1052E00010936A030093690310927D038091770302
:1052F00090917803909354038093530364E670E095
:1053000080E090E00E945004A114B10409F468CD3B
:105310000E945B07882309F45FCD0E9400005CCDEA
:105320001092780310927703F0926003E0925F038B
:1053300010929E03109272031092730310927403E2
:105340000E940D0561E087E00E940503AECF8091C9
:10535000D9049091DA04853A9A4531F48091D104C8
:105360009091D2040E94D82D8BE995E00E9495106F
:1053700085E995E00E9495108FE895E00E949510D0
:1053800089E895E00E94951083E895E00E949510C9
:105390008DE795E00E94951087EA95E00C949510B2
:1053A0001F93FC0199278827BC01E89411911032C2
:1053B000E9F3193010F01E30C8F31B3251F01D32E2
:1053C00049F4689406C00E941B2A610F711D811D5B
:1053D000911D119110531A30B0F33EF490958095C1
:1053E000709561957F4F8F4F9F4F1F910895911139
:1053F0000C944A2A803219F089508550C8F70895D4
:10540000FB01DC0105900D920020E1F70895FC01FD
:1054100005900020E9F7809590958E0F9F1F0895C5
:10542000BB274A3031F4992322F4BDE2909581954F
:105430009F4F0C94312A592F482F372F262F660F54
:10544000771F881F991F660F771F881F991F620F8C
:10545000731F841F951F660F771F881F991F08955C
:10546000BB27FB015527AA27880F991FAA1FA4173E
:1054700010F0A41B83955051B9F7A05DAA3308F032
:10548000A95DA193009779F7B111B1931192CB0166
:105490000C944D2A992788270895DC01FC01672F79
:1054A00071917723E1F7329704C07C916D937083FB
:1054B0006291AE17BF07C8F308950E949F2A08F4AF
:1054C00081E00895E89409C097FB3EF4909580959B
:1054D000709561957F4F8F4F9F4F9923A9F0F92FBA
:1054E00096E9BB279395F695879577956795B79538
:1054F000F111F8CFFAF4BB0F11F460FF1BC06F5F1E
:105500007F4F8F4F9F4F16C0882311F096E911C02F
:10551000772321F09EE8872F762F05C0662371F050
:1055200096E8862F70E060E02AF09A95660F771F64
:10553000881FDAF7880F9695879597F90895990F40
:105540000008550FAA0BE0E8FEEF16161706E8074D
:10555000F907C0F012161306E407F50798F0621B6E
:10556000730B840B950B39F40A2661F0232B242B43
:10557000252B21F408950A2609F4A140A6958FEF62
:10558000811D811D08950E94D62A0C94472B0E94EC
:10559000392B38F00E94402B20F0952311F00C9409
:1055A000302B0C94362B11240C947B2B0E94582BFF
:1055B00070F3959FC1F3950F50E0551F629FF00166
:1055C000729FBB27F00DB11D639FAA27F00DB11D7F
:1055D000AA1F649F6627B00DA11D661F829F222708
:1055E000B00DA11D621F739FB00DA11D621F839F8F
:1055F000A00D611D221F749F3327A00D611D231F65
:10560000849F600D211D822F762F6A2F11249F57B2
:1056100050409AF0F1F088234AF0EE0FFF1FBB1FB5
:10562000661F771F881F91505040A9F79E3F510574
:1056300080F00C94302B0C947B2B5F3FE4F3983E6E
:10564000D4F3869577956795B795F795E7959F5F1E
:10565000C1F7FE2B880F911D9695879597F90895B0
:1056600097F99F6780E870E060E008959FEF80EC15
:10567000089500240A9416161706180609060895B8
:1056800000240A9412161306140605060895092E1E
:105690000394000C11F4882352F0BB0F40F4BF2B8D
:1056A00011F460FF04C06F5F7F4F8F4F9F4F0895CD
:1056B00057FD9058440F551F59F05F3F71F04795C3
:1056C000880F97FB991F61F09F3F79F087950895A8
:1056D000121613061406551FF2CF4695F1DF08C0C7
:1056E000161617061806991FF1CF869571056105E4
:1056F00008940895E894BB2766277727CB0197F98C
:105700000895DC01CB01FC01F999FECF06C0F2BD82
:10571000E1BDF89A319600B40D9241505040B8F76F
:105720000895DC01CB0103C02D910E949C2B4150B8
:105730005040D0F70895262FF999FECF1FBA92BD99
:1057400081BD20BD0FB6F894FA9AF99A0FBE019662
:105750000895DB018F939F930E94FA2BBF91AF9125
:10576000A29F800D911DA39F900DB29F900D1124BB
:105770000895A1E21A2EAA1BBB1BFD010DC0AA1F92
:10578000BB1FEE1FFF1FA217B307E407F50720F0AA
:10579000A21BB30BE40BF50B661F771F881F991F25
:1057A0001A9469F760957095809590959B01AC016E
:1057B000BD01CF010895052E97FB1EF400940E94B1
:1057C000F22B57FD07D00E94B92B07FC03D04EF4F3
:1057D0000C94F22B50954095309521953F4F4F4FAB
:1057E0005F4F089590958095709561957F4F8F4F8D
:1057F0009F4F08950E94442CA59F900DB49F900D3B
:10580000A49F800D911D11240895B7FF0C94FA2BCD
:105810000E94FA2B821B930B08952F923F924F9276
:105820005F926F927F928F929F92AF92BF92CF9230
:10583000DF92EF92FF920F931F93CF93DF93CDB739
:10584000DEB7CA1BDB0B0FB6F894DEBF0FBECDBFB1
:1058500009942A88398848885F846E847D848C8482
:105860009B84AA84B984C884DF80EE80FD800C818B
:105870001B81AA81B981CE0FD11D0FB6F894DEBF6E
:105880000FBECDBFED010895A29FB001B39FC0012F
:10589000A39F700D811D1124911DB29F700D811D5C
:1058A0001124911D0895991B79E004C0991F961742
:1058B00008F0961B881F7A95C9F78095089597FB85
:1058C000072E16F4009407D077FD09D00E94802C93
:1058D00007FC05D03EF4909581959F4F08957095F3
:1058E00061957F4F0895EE0FFF1F0590F491E02D15
:1058F00009940E94442CB7FF0895821B930B0895CE
:10590000AA1BBB1B51E107C0AA1FBB1FA617B707E5
:1059100010F0A61BB70B881F991F5A95A9F7809501
:105920009095BC01CD0108955058BB27AA270E942D
:10593000AC2C0C94472B0E94392B38F00E94402B42
:1059400020F039F49F3F19F426F40C94362B0EF412
:10595000E095E7FB0C94302BE92F0E94582B58F36D
:10596000BA17620773078407950720F079F4A6F544
:105970000C947A2B0EF4E0950B2EBA2FA02D0B0170
:10598000B90190010C01CA01A0011124FF27591B84
:1059900099F0593F50F4503E68F11A16F040A22F8A
:1059A000232F342F4427585FF3CF469537952795FB
:1059B000A795F0405395C9F77EF41F16BA0B620BFA
:1059C000730B840BBAF09150A1F0FF0FBB1F661F41
:1059D000771F881FC2F70EC0BA0F621F731F841F84
:1059E00048F4879577956795B795F7959E3F08F0AA
:1059F000B0CF9395880F08F09927EE0F979587956C
:105A000008950E94082D6894B1110C947B2B089581
:105A10000E94602B88F09F5798F0B92F9927B751B3
:105A2000B0F0E1F0660F771F881F991F1AF0BA9542
:105A3000C9F714C0B13091F00E947A2BB1E00895FB
:105A40000C947A2B672F782F8827B85F39F0B93FED
:105A5000CCF3869577956795B395D9F73EF49095F5
:105A60008095709561957F4F8F4F9F4F08950E944D
:105A70009F2A08F48FEF08950F931F93CF93DF931E
:105A80008230910510F482E090E0E091BC05F09145
:105A9000BD0530E020E0B0E0A0E0309799F421159A
:105AA000310509F44AC0281B390B24303105D8F5DB
:105AB0008A819B816115710589F1FB019383828342
:105AC000FE0111C04081518102811381481759079D
:105AD000E0F04817590799F4109761F012960C936B
